:100000000C942A000C9434000C9434000C943400AA
:100010000C9434000C9434000C9434000C94340090
:100020000C9434000C9434000C9434000C94340080
:100030000C9434000C9434000C9434000C94340070
:100040000C9434000C9434000C9434000C94340060
:100050000C94340011241FBECFE5D4E0DEBFCDBF29
:100060000E9436000C944C000C940000CF93DF9358
:1000700000D000D01F92CDB7DEB79B838A837D83EB
:100080006C83198287E390E02FE3FC01208388E3EF
:0C00900090E0FC011082FBCFF894FFCF41
:00000001FF
